:100000000C942A000C9447000C9447000C94470071
:100010000C9447000C9447000C9447000C94470044
:100020000C9447000C9447000C9447000C94470034
:100030000C9447000C9447000C9447000C94470024
:100040000C9447000C9447000C9447000C94470014
:100050000C94470011241FBECFE5D4E0DEBFCDBF16
:1000600010E0A0E6B0E0E6E0F4E002C005900D92FA
:10007000A83EB107D9F710E0A8EEB0E001C01D928C
:10008000A83EB107E1F70E9488010C9401020C948C
:10009000000087B3807F87BB969A93980000C49A2C
:1000A000000086B38295807F0000C4980000C49A47
:1000B000000096B30000C4980000882384F396984B
:1000C00087B38F6087BB0895282F22952F708F707C
:1000D000662311F4939801C0939A0000C49A98B3D0
:1000E000907F922B98BB0000C4980000C49A98B3EC
:1000F000907F892B88BB0000C49800000E944900B3
:1001000008950F931F93CF93DF938C01FC0180819F
:10011000882309F18532A9F4E8012196F80181814B
:100120008053883020F461E00E9464000EC085E2B4
:1001300061E00E946400F801818161E00E94640036
:1001400004C061E00E946400E8018E010F5F1F4F50
:1001500089818823F9F6DF91CF911F910F9108953E
:10016000EF92FF920F931F93CF93DF9300D000D0B5
:100170000F92CDB7DEB77B01FE01319625E0DF019E
:100180001D922A95E9F7009761F0FE0136962AE064
:1001900030E0B9010E94DA018293862F972F0097F1
:1001A000C1F7BFEFEB16BFEFFB0669F429812223ED
:1001B00079F4FE01329600E010E00F5F1F4F2191AD
:1001C0002223D9F307C005E010E00E191F0902C071
:1001D00000E010E0992324F48DE261E00E946400C5
:1001E00005301105BCF4E1E0F0E0EC0FFD1F0E0F4F
:1001F0001F1F0F2EF6E0EF2EFF24F02DEC0EFD1E3C
:10020000D8018D918D01805D61E00E9464000E1522
:100210001F05B1F70F900F900F900F900F90DF9187
:10022000CF911F910F91FF90EF900895843178F452
:10023000623031F0633031F0613029F4806403C002
:100240008C5E01C08C5A806860E00E946400089552
:100250000F931F93CF93DF93C82F8BE49DE10197FA
:10026000F1F700C0000087B38F6087BBBC9A8B9A00
:100270008E9A88B3807F88BBC49896989398000024
:10028000C49AC19A0000C49800000E9449008C2FB3
:100290008C6060E00E94640088E260E00E9464007C
:1002A00080E460E00E946400C0E6D0E000EA10E074
:1002B000899161E00E946400C017D107C9F780E00E
:1002C00060E00E941601DF91CF911F910F91089578
:1002D00089B990BD86E880BD88E18AB908955F9BA1
:1002E000FECF8CB108955D9BFECF8CB90895181692
:1002F00019066CF440E0EFE4F3EC3197F1F700C03D
:1003000000004F5F242F30E028173907A4F3089529
:1003100083E390E00E94680183E00E94280181E06D
:1003200060E00E94640080EA90E00E94810080E02A
:1003300061E00E94160181EB90E00E94810085E05F
:1003400090E00E94770181E060E00E94640082EC0E
:1003500090E00E94810080E061E00E94160183ED40
:1003600090E00E94810085E090E00E94770181E0AA
:1003700060E00E946400C6EDD0E081E060E00E9491
:100380006400CE010E94810010E00E946F01082FDE
:100390000E947301812F61E00E941601802F61E0AD
:1003A0000E9464001F5F103181F782E090E00E949C
:1003B0007701E3CF97FB092E07260AD077FD04D0FB
:1003C0000CD006D000201AF4709561957F4F0895E7
:1003D000F6F7909581959F4F0895AA1BBB1B51E19D
:1003E00007C0AA1FBB1FA617B70710F0A61BB70BA5
:1003F000881F991F5A95A9F780959095BC01CD014A
:060400000895F894FFCFFF
:100406000A15110A04000000000A000400110E007B
:10041600010305090B1B180004041F0404040E0045
:1004260002061A1A1A06020003041F040404040032
:100436001F040E150D0404001F090B1513090900EE
:10044600424C5545544F4F5448204D4F44554C450A
:10045600002020494E544552464143494E472020EC
:10046600200020202020202020427920202020202B
:10047600202000524B00526563656976696E6720DD
:08048600446174612E2E000098
:00000001FF
